{
  "contractName": "Elections",
  "abi": [
    {
      "inputs": [
        {
          "internalType": "contract Elections",
          "name": "",
          "type": "address"
        }
      ],
      "payable": false,
      "stateMutability": "nonpayable",
      "type": "constructor"
    },
    {
      "constant": true,
      "inputs": [],
      "name": "candidate",
      "outputs": [
        {
          "internalType": "string",
          "name": "",
          "type": "string"
        }
      ],
      "payable": false,
      "stateMutability": "view",
      "type": "function"
    }
  ],
  "bytecode": "0x608060405234801561001057600080fd5b506040516102d03803806102d08339818101604052602081101561003357600080fd5b81019080805190602001909291905050506040518060400160405280600a81526020017f43616e64696461746531000000000000000000000000000000000000000000008152506000908051906020019061008f929190610096565b505061013b565b828054600181600116156101000203166002900490600052602060002090601f016020900481019282601f106100d757805160ff1916838001178555610105565b82800160010185558215610105579182015b828111156101045782518255916020019190600101906100e9565b5b5090506101129190610116565b5090565b61013891905b8082111561013457600081600090555060010161011c565b5090565b90565b6101868061014a6000396000f3fe608060405234801561001057600080fd5b506004361061002b5760003560e01c80636c8381f814610030575b600080fd5b6100386100b3565b6040518080602001828103825283818151815260200191508051906020019080838360005b8381101561007857808201518184015260208101905061005d565b50505050905090810190601f1680156100a55780820380516001836020036101000a031916815260200191505b509250505060405180910390f35b60008054600181600116156101000203166002900480601f0160208091040260200160405190810160405280929190818152602001828054600181600116156101000203166002900480156101495780601f1061011e57610100808354040283529160200191610149565b820191906000526020600020905b81548152906001019060200180831161012c57829003601f168201915b50505050508156fea265627a7a7231582036a048503468cc0b6cc6b528069d4f1283c9bc209ac0b79f92411cca9c30f1d564736f6c63430005100032",
  "source": "// SPDX-License-Identifier: MIT\r\npragma solidity >=0.4.22 <0.8.0;\r\n\r\ncontract Elections\r\n{\r\n    //Store Candidate\r\n    //Read Candidate\r\n    string public candidate;\r\n    //Constructor\r\n     constructor(Elections) public\r\n    {\r\n        candidate = \"Candidate1\";\r\n    }\r\n}\r\n",
  "sourcePath": "D:/Projects/VotingApp/contracts/Elections.sol",
  "compiler": {
    "name": "solc",
    "version": "0.5.16+commit.9c3226ce.Emscripten.clang"
  },
  "schemaVersion": "3.3.2",
  "updatedAt": "2020-11-11T17:51:11.766Z",
  "devdoc": {
    "methods": {}
  },
  "userdoc": {
    "methods": {}
  }
}